:020000040000FA
:10000000F0FB012001010000732A00003B2C0000DE
:100010008B300000DF3100007B3200000000000068
:100020000000000000000000000000003B2900006C
:100030006B2E0000000000003B2900003B2900005F
:100040003B2900003B2900003B29000089360000C5
:100050003B2900003B2900003B2900003B29000010
:100060003B2900003B2900003B2900003B29000000
:10007000951100003B2900003B2900003B290000AE
:100080003B2900003B2900003B290000F133000020
:100090003B2900003B290000993300003B29000068
:1000A0003B2900003B2900003B2900003B290000C0
:1000B0003B2900003B2900003B2900003B290000B0
:1000C0003B2900003B2900003B2900003B290000A0
:1000D0003B2900003B2900003B2900003B29000090
:1000E000F8B500BFF8BC08BC9E467047F12F000071
:1000F000F8B500BFF8BC08BC9E467047CD2F000085
:1001000008B5194B9847194B9847EFF3108172B611
:10011000174AD2F8883043F47003C2F88830BFF32E
:100120004F8FBFF36F8F01B962B6124A936823F005
:10013000010393601346DA6812F0010FFBD10D4BF7
:1001400024225A6001229A6002F036F90A4B23F009
:100150007F03074A9360094B9847094B9847094B1F
:10016000984703F0D1FBFEE71D3600009B340000EA
:1001700000ED00E00020004100000000312B0000F5
:100180009B3400009B3400005345435031313252C0
:100190003100000044423743324142463632453353
:1001A00035453636383037364245414432303842AC
:1001B0000000000044423743324142463632453364
:1001C0003545363638303736424541443230383896
:1001D0000000000036353945463842413034333965
:1001E0003136454544453839313137303242323283
:1001F0000000000044423743324142463632453324
:100200003545373632384446414336353631433545
:100210000000000039343837323339393935413547
:100220004545373642353546394332463039380050
:10023000413839434535414638373234433041320D
:100240003345304530464637373530300000000002
:10025000534543503132385231000000464646463D
:100260004646464446464646464646464646464630
:100270004646464646464646464646460000000036
:100280004646464646464644464646464646464610
:100290004646464646464646464646464646464301
:1002A00000000000453837353739433131303739B0
:1002B0004634334444383234393933433243454584
:1002C000354544330000000046464646464646450E
:1002D00030303030303030303735413330443142D7
:1002E0003930333841313135000000003136314684
:1002F0004637353238423839394232443043323861
:10030000363037434135324335423836000000003D
:10031000434635414338333935424146454231330E
:100320004330324441323932444445443741383312
:100330000000000053454350313630523100000078
:10034000464646464646464646464646464646464D
:10035000464646464646464646464646464646463D
:100360003746464646464646000000004646464654
:10037000464646464646464646464646464646461D
:10038000464646464646464646464646374646461C
:100390004646464300000000314339374245464354
:1003A0003534424437413842363541434638394680
:1003B000383144344434414443353635464134358C
:1003C00000000000313030303030303030303030EC
:1003D00030303030303030303146344338463932C6
:1003E0003741454433434137353232353700000019
:1003F0003441393642353638384546353733323868
:10040000343636343639383936384333384242395F
:100410003133434246433832000000003233413624
:100420003238353533313638393437443539444349
:100430004339313230343233353133373741433554
:1004400046423332000000005345435031393252A6
:100450003100000046464646464646464646464623
:10046000464646464646464646464646464646462C
:10047000464646454646464646464646464646461D
:100480004646464600000000464646464646464624
:1004900046464646464646464646464646464646FC
:1004A00046464646464646454646464646464646ED
:1004B0004646464646464643000000003634323142
:1004C0003035313945353943383045373046413795
:1004D0004539414237323234333034394645423877
:1004E000444545434331343642394231000000002F
:1004F000464646464646464646464646464646469C
:1005000046464646464646463939444546383336D9
:100510003134364243394231423444323238333155
:100520000000000031383844413830454230333023
:100530003930463637434246323045423433413112
:1005400038383030463446463041464438324646E4
:10055000313031320000000037313932423935460E
:1005600046433844413738363331303131454436EB
:1005700042323443444435373346393737413131D9
:1005800045373934383131005345435032323452D3
:1005900031000000464646464646464646464646E2
:1005A00046464646464646464646464646464646EB
:1005B00046464646303030303030303030303030E3
:1005C00030303030303030303030303100000000EA
:1005D00046464646464646464646464646464646BB
:1005E00046464646464646464646464646464645AC
:1005F000464646464646464646464646464646469B
:1006000046464646464646450000000042343035E0
:10061000304138353043303442334142463534314D
:10062000333235363530343442304237443742463F
:10063000443842413237304233393433323335353E
:100640004646423400000000464646464646464678
:10065000464646464646464646464646464646463A
:1006600046464646313641324530423846303345BB
:1006700031334444323934353543354332413344E0
:100680000000000042373045304342443642423495
:1006900042463746333231333930423934413033D0
:1006A00043314433353643323131323233343332ED
:1006B00038304436313135433144323100000000A6
:1006C0004244333736333838423546373233464280
:1006D000344332324446453643443433373541306F
:1006E000354130373437363434344435383139399C
:1006F0003835303037453334000000005052494D12
:10070000453233395631000037464646464646465E
:100710004646464646464646464646464646464679
:1007200037464646464646464646464638303030C8
:100730003030303030303030374646464646464618
:100740004646464600000000374646464646464670
:100750004646464646464646464646464646464639
:100760003746464646464646464646463830303088
:1007700030303030303030303746464646464646D8
:10078000464646430000000036423031364333428D
:1007900044434631383934314430443635343932C3
:1007A00031343735434137314139444232464232A0
:1007B00037443144333737393631383543323934B9
:1007C0003243304100000000374646464646464622
:1007D00046464646464646464646464646464646B9
:1007E000374646464646394535453941394635440A
:1007F0003930373146424431353232363838393083
:100800003944304200000000304646413936334317
:100810004443413838313643434333334238363426
:100820003242454446393035433344333538353721
:1008300033443346323746424244334233434239EB
:1008400041414146000000003744454245384534A7
:1008500045393041354441453645343035344341DE
:10086000353330424130343635344233363831381E
:1008700043453232364233394643434237423032BF
:100880004631414500000000534543503235365251
:100890003100000046464646464646463030303037
:1008A0003030303130303030303030303030303047
:1008B00030303030303030303030303046464646E0
:1008C00046464646464646464646464646464646C8
:1008D00046464646000000004646464646464646D0
:1008E0003030303030303031303030303030303007
:1008F00030303030303030303030303030303030F8
:100900004646464646464646464646464646464687
:1009100046464646464646430000000035414336BB
:100920003335443841413341393345374233454209
:100930004244353537363938383642433635314416
:1009400030364230434335334230463633424345F6
:1009500033433345323744323630344200000000EE
:1009600046464646464646463030303030303030D7
:100970004646464646464646464646464646464617
:100980004243453646414144413731373945383491
:1009900046334239434143324643363332353531AB
:1009A000000000003642313744314632453132438F
:1009B0003432343746384243453645353633413490
:1009C0003430463237373033374438313244454299
:1009D0003333413046344131333934354438393892
:1009E0004332393600000000344645333432453254
:1009F000464531413746394238454537454234410D
:100A00003743304639453136324243453333353743
:100A10003642333135454345434242363430363829
:100A200033374246353146350000000053454350C8
:100A30003338345231000000464646464646464664
:100A40004646464646464646464646464646464646
:100A50004646464646464646464646464646464636
:100A60004646464646464646464646464646464626
:100A70004646464646464645464646464646464617
:100A80003030303030303030303030303030303066
:100A9000464646464646464600000000464646460E
:100AA00046464646464646464646464646464646E6
:100AB00046464646464646464646464646464646D6
:100AC00046464646464646464646464646464646C6
:100AD00046464646464646464646464546464646B7
:100AE00046464646303030303030303030303030AE
:100AF0003030303046464646464646430000000009
:100B00004233333132464137453233454537453438
:100B10003938384530353642453346383244313934
:100B20003138314439433645464538313431313234
:100B30003033313430383846353031333837354159
:100B400043363536333938443841324544313944F7
:100B500032413835433845444433454332414546B4
:100B6000000000004646464646464646464646463D
:100B70004646464646464646464646464646464615
:100B80004646464646464646464646464646464605
:100B90004646464643373633344438314634333795
:100BA00032444446353831413044423234384230A0
:100BB0004137374145434543313936414343433556
:100BC0003239373300000000414138374341323277
:100BD0004245384230353337384542314337314565
:100BE000463332304144373436453144334236326D
:100BF0003842413739423938353946373431453052
:100C00003832353432413338353530324632354476
:100C1000424635353239364333413534354533383C
:100C20003732373630414237000000003336313733
:100C300044453441393632363243364635443945F7
:100C400039384246393239324443323946384634EB
:100C500031444244323839413134374345394441D3
:100C6000333131334235463042384330304136300B
:100C700042314345314437453831394437413433C3
:100C80003144374339304541304535460000000096
:100C9000534543503532315231000000314646460B
:100CA00046464646464646464646464646464646E4
:100CB00046464646464646464646464646464646D4
:100CC00046464646464646464646464646464646C4
:100CD00046464646464646464646464646464646B4
:100CE00046464646464646464646464646464646A4
:100CF0004646464646464646464646464646464694
:100D00004646464646464646464646464646464683
:100D100046464646464646464646464646464600B9
:100D20003146464646464646464646464646464678
:100D30004646464646464646464646464646464653
:100D40004646464646464646464646464646464643
:100D50004646464646464646464646464646464633
:100D60004646464646464646464646464646464623
:100D70004646464646464646464646464646464613
:100D80004646464646464646464646464646464603
:100D900046464646464646464646464646464646F3
:100DA00046464300353139353345423936313845C9
:100DB000314339413146393239413231413042369D
:100DC000383534304545413244413732354239397E
:100DD0004233313546334238423438393931384577
:100DE000463130394531353631393339353145437E
:100DF0003745393337423136353243304244334256
:100E0000423142463037333537334446383833443D
:100E10003243333446314546343531464434364224
:100E20003530334630300000314646464646464669
:100E30004646464646464646464646464646464652
:100E40004646464646464646464646464646464642
:100E50004646464646464646464646464646464632
:100E60004646464646464646464641353138363879
:100E700037383342463246393636423746434330B6
:100E800031343846373039413544303342423543C6
:100E9000394238383939433437414542423646427F
:100EA0003731453931333836343039004336383507
:100EB000384530364237303430344539434439458B
:100EC000334543423636323339354234343239438E
:100ED000363438313339303533464235323146389D
:100EE000323841463630364234443344424141314F
:100EF000344235453737454645373539323846452A
:100F00003144433132374132464641384445333328
:100F10003438423343313835364134323942463938
:100F20003745374533314332453542443636000084
:100F30003131383339323936413738394133424328
:100F4000303034354338413546423432433744310A
:100F500042443939384635343434393537394234F6
:100F600034363831374146424431373237334536EB
:100F700036324339374545373239393545463432CB
:100F800036343043353530423930313346414430E0
:100F900037363133353343373038364132373243E1
:100FA00032343038384245393437363946443136B0
:100FB00036353000905A00201C0000000000000070
:100FC000BDFE01200100000000000000C45A002006
:100FD00014000000000000007CFF0120040000005D
:100FE00000000000A04700201010000000000000DA
:100FF000AC5A00201800000000000000B05700208C
:10100000000200000000000000000020A01F0000FF
:1010100000000000F8FF01200400000001000000B3
:1010200000100000BEFE01200200000000000000D1
:10103000FCFF01200400000000000000D85A00203E
:101040000400000000000000A01F002000140000A9
:1010500000000000A0330020001400000000000089
:1010600090FF0120400000000000000074FF0120FC
:101070000800000000000000F0FF01200800000050
:1010800000000000505A0020400000000000000056
:10109000B0590020A000000000000000D0FF012097
:1010A0002000000001000000064A136823F49F732B
:1010B00023F0010343F011031360092300BF013B38
:1010C000FCD1704700240144DC5A002004000000D9
:1010D0000000000088FE0120300000000000000039
:1010E000BCFE01200100000000000000B8FE01204D
:1010F000040000000000000000FC012028020000A5
:1011000000000000C0FE01204000000000000000C0
:1011100000FF0120200000000000000080FF0120EF
:10112000100000000000000028FE01206000000008
:1011300000000000EC5A0020010000000000000048
:1011400020FF0120010000000000000021FF01201D
:101150000100000000000000E05A00200400000030
:1011600000000000E45A002004000000000000001D
:1011700024FF01205000000000000000E85A002079
:10118000040000000000000000000000000000005B
:1011900022222222704B9B7D002B00F0DC80F0B5D8
:1011A00083B06D4A137EDBB2927D12F0800F11D1B5
:1011B000694A137EDBB2927D12F0010F00F0BC8011
:1011C00013F0010F00F0B880644C634D644E206949
:1011D000217D34E013F0800FEAD05F4B5B8B13F07E
:1011E0000703E5D05D4AD3875B4B80221A7607223E
:1011F0005A831B7E13F0040F05D0574B9A6A1A7E50
:1012000012F0040FFAD1554B1B6A002BD0D0534A71
:10121000516A02209847CBE7F25C8DF80620013333
:10122000984298BF0023E3606B6803F00703012B2B
:1012300014BF9DF80630BDF80630AB62B9B92B7EFD
:1012400013F0010F78D0A268E3689A4271D06A68FF
:1012500002F00702012ADFD116F813208DF80620CC
:1012600006EB430252788DF807200133D8E702F0ED
:10127000A1FA2368002BAAD0227F32B1A269904242
:10128000A5D3616803209847A1E7A26990429ED147
:101290006168032098479AE7226A002A37D0616A7A
:1012A00038469047A36A0133226B934228BF00233C
:1012B0002DE0A16A2B4A02F8115002EB4102C5F35E
:1012C000072555702EE002F0F7F9236A002B2ED087
:1012D00094F83C2032B1A26B904228D3616A00207E
:1012E000984724E0A26B904221D1616A0020984780
:1012F0001DE0337E13F0040F2BD0B56AA36A0133CF
:10130000226B934228BF0023E26A9A42C4D0E26A69
:101310009A42EED0726802F00702012AC9D0A26A8E
:1013200010498D54A36294F83430002BCBD101279F
:10133000DFE7094B01221A75074A137EDBB2927D63
:1013400012F0040F05D013F0040F02D0024E034C2C
:10135000EDE703B0F0BD7047000C004090FF0120A6
:10136000A0330020A01F0020536C6F7430200000B9
:10137000536C6F7431200000C2818FBB2861478B92
:10138000A2533779D463187C8B4159A95F0B6B94B6
:101390004EB957A103FE20BF2BB8142A64B5AE4A3C
:1013A0008380DDE6EE2989DDA09AC7DA82EB5662FA
:1013B000905D66C5BC303C844D6865616465722093
:1013C000736861323536204661696C6564210D0AA7
:1013D000000000004D6865616465722073686132C9
:1013E0003536205665726966696564210D0A00000C
:1013F0004D6574616865616465722045434453417D
:10140000205665726966696564210D0A0000000056
:101410004D6574616865616465722045434453415C
:10142000204661696C6564210D0A000046572073EF
:101430006861323536204661696C6564210D0A00A9
:101440004657207368613235362056657269666981
:101450006564210D0A00000046572045434453416E
:10146000205665726966696564210D0A00000000F6
:101470004657204543445341204661696C656421C9
:101480000D0A0000536C6F743120457261736564FE
:101490000D0A0000536C6F743020457261736564EF
:1014A0000D0A0000536C6F743120436F70696564DE
:1014B00020746F20536C6F74300D0A00436F707985
:1014C0002056657269666965640D0A00436F70791C
:1014D000204469666665720D0A000000496E7661F7
:1014E0006C696420536C6F743120496D6167650DC0
:1014F0000A000000496E76616C696420536C6F7459
:101500003020496D6167650D0A0000004446552092
:101510004E6F77210D0A00004446552045786974C6
:10152000210D0A002DE9F84305460C46174602F046
:1015300069F9102F14D0B846BB1E3E2B00F29D80D7
:1015400023782D2B64D04FF000092078002877D124
:101550002B68002B00F08680C5F80490002381E002
:1015600023782D2B06BF013401260026204602F0E9
:10157000B5F9012800F18C80204400210A461CE0C6
:10158000A7F16103DBB2052B71D8A7F15703DBB2DA
:10159000202A08BF013102F01F0287296ADC05EB0F
:1015A000810E9340DEF808703B43CEF808300432D9
:1015B0000238031B6046002B11DB00F1FF3C10F8E2
:1015C000017CA7F13003DBB2092BE1D9A7F141037C
:1015D000DBB2052BD4D8A7F13703DBB2D8E7013152
:1015E0002960002951D04A1E4B1C55F8233063B99D
:1015F000013105EB810300E00246002A43D0501E72
:1016000053F8041D0029F7D02A606E60002329E0FA
:1016100001344FF0010998E7B74231DD2A464146CF
:10162000284600F0C9F90346E0B92A463146284663
:1016300001F009FF0346A8B914F8010F002887D06C
:10164000242F02DC02F067F9C0B230280DD0124B13
:10165000012613F8012F8242DED00136402EF8D148
:101660004FF0FF331846BDE8F8830026D6E74FF069
:10167000FF33F7E74FF0FF33F4E74FF0FF33F1E7C5
:101680004FF0FF33EEE700232B6000236B60E9E7A8
:1016900001212960A7E700BF882F00002DE9F04F46
:1016A00083B007468B469046D0E91E2312EB080014
:1016B00043F10001C7E91E0112F03F0928D0C9F12A
:1016C0004005454501D9002423E007F118042A46C6
:1016D000594604EB090002F04EF8DFF8CCC007F1E0
:1016E000580E664620686168A268E3680FC6103429
:1016F000B4467445F5D140222B49384600F0E8FB4A
:101700000446AB44A8F14008C8444FF0000900E08B
:101710000024B8F13F0F2BD91BF03F0F2FD00BF156
:101720004006A8F140039A0901920BF1800A23F0C8
:101730003F039A44A6F14004DFF86CC0B646654604
:1017400020686168A268E3680FC51034AC46744530
:10175000F5D140221449384600F0BAFB40365645D0
:10176000E8D10446019B01330BEB831B08F03F08D3
:10177000B8F1000F0FD1204603B0BDE8F08F28F07C
:101780003F052A465946384600F0A2FB0446AB44C2
:1017900008F03F08ECE707F1180042465946484474
:1017A00001F0E9FFE7E700BFC0FE0120F0B5BDB0E2
:1017B000064630A802F060F8309B002B71D09A6A80
:1017C000DC6A42F0847727409968B1420BD29B696A
:1017D000DB6801213846984700B1FEE70E21324808
:1017E00002F024F85DE042F0807214401988B6FBE4
:1017F000F1F295B201FB12620AB10135ADB29B69FB
:1018000033B1DB6823B129462046984700B1FEE793
:101810000E21264802F00AF8309B9B6943B15B68B1
:1018200033B1324621464FF08470984700B1FEE74D
:1018300017211F4801F0FAFF684602F05EF83246B1
:101840004FF080716846FFF729FF28A9684600F02D
:1018500047FC684602F051F832464FF08471684602
:10186000FFF71CFF20A9684600F03AFC202220A9BF
:1018700028A801F0EFFE80B90F210E4801F0D6FF35
:10188000309B9B69DB6829463846984700B1FEE7E4
:101890000E21054801F0CAFF03E00D21064801F0C2
:1018A000C5FF3DB0F0BD00BF8414000094140000DB
:1018B000A4140000BC140000CC14000038B54FF094
:1018C00088431C6A4FF0847001F0BAFF30B10546BE
:1018D000B0F1FF3F49D02846FFF768FF4FF0807016
:1018E00001F0AEFF013810F1030F43D82A4B013B42
:1018F000FDD101F021FE01F001FB274B013BFDD1A1
:1019000072B6264B4FF0FF32C3F88020C3F8842014
:10191000C3F88820C3F88C20C3F89020C3F8942023
:10192000C3F89820C3F89C20C3F88021C3F8842111
:10193000C3F88821C3F88C21C3F89021C3F89421FF
:10194000C3F89821C3F89C2162B6002383F314885E
:10195000BFF36F8F124B1B6883F30888114B012272
:101960001A70114B1B68984738BD15210F4801F0BC
:101970005DFFB0E715210E4801F058FF064B013B13
:10198000FDD104F400040B4945F2437200E00A80E3
:10199000002CFCD1FEE700BFFFFF050000E100E0E6
:1019A0000002000120FF012004020001DC140000FD
:1019B000F4140000020500442DE9F04FD2F8008035
:1019C000D0F800B0C2F800B0D0F804A0C2F804A06B
:1019D0000368002B5DDD00F1040C131D4FF0000EB9
:1019E00000240025F14600E0B6465CF8046FE1FBF8
:1019F00006452F4643F8044F3C464D460EF101067E
:101A00000768B742F0DC54EA05030AD0882F08D0F3
:101A10000BF1010313600BF1020B42F82B400EF1A6
:101A20000206B0450FDD872E0FDCB31C02EB8303EB
:101A3000002143F8041B0136B04507D0882EF8D1A9
:101A40004FF0FF3023E0B04600E0B046B8F1880F19
:101A500013D01168B1B14B1E481C52F8200098B940
:101A6000013102EB810100E023464BB15C1E51F8CD
:101A7000040D0028F8D0136006E04FF0FF3006E0B8
:101A8000002313604FF0000AC2F804A00020BDE854
:101A9000F08FB8F1000FD8BF4FF00008D6DD002658
:101AA000C3E77047F8B5344C656B63689B6998472A
:101AB0006061606901F03CFED4E90A67321847F1C1
:101AC0000003C4E90A23002D4CD094F830300133D0
:101AD00084F8303001F002FC646B2CB1A3681BB9B0
:101AE00001250027244E11E0244D00242E462746D0
:101AF0001FE0E06901F0E8FAE3680BB1206998475C
:101B0000746B002CF0D0A368002BEDD125756575A2
:101B1000A37813B9E368002BEBD1204600F0DAFF7D
:101B2000A378002BE8D16770E6E701342035052C57
:101B300012D006EB44135B7D002BF6D006EB44136A
:101B40005F75AB78012BF0D16B6806EB44129360A4
:101B5000284600F061FBE8E7074A92F83030013B85
:101B600082F8303001F02CFF044600F00DFA2046D8
:101B700001F02AFFF8BD00BF505A0020B0590020E4
:101B80002DE9F04F83B00C680368A342B8BF234629
:101B90001468882CA8BF8824A6461360002B46DD55
:101BA0000430043102F104084FF0000A4FF0000B3A
:101BB0004FF0000C50F8049F51F8044F002514EB2F
:101BC000090645F10007CDE9006716EB0A06019CFE
:101BD00044EB0B0448F8046F4FF0000BA2460CF1E5
:101BE000010C6345E6D15AEA0B0007D0872B05DCD0
:101BF000581C1060023342F823400346882B26D03D
:101C000013609E4509DD981C02EB800019460024F4
:101C100040F8044B01318E45FAD1EBB1591E581CE6
:101C200052F8200068B9013302EB830302E000237D
:101C3000E6E7214671B14C1E53F8040D0028F8D098
:101C4000116053685360002003B0BDE8F08F4FF07F
:101C5000FF30F9E7002313600023F3E72DE9F04F8D
:101C600080469246D2F800900C6800681060002C04
:101C700049DD08F1040E043102F1040C00231A4678
:101C80001D465EF804BFBBEB030662EB420751F84A
:101C900004BFB6EB0B0267F100034CF8042F03F00E
:101CA000010300220135AC42EBD1D8F80010A1426B
:101CB00014DDA51CAD0008EB05065544002756F8B9
:101CC000041BC91A62EB420245F8041B02F001032F
:101CD0003A460134D8F80010A142F0DCA14508DDF5
:101CE000A31C0AEB8303002243F8042B0134A14513
:101CF000FAD1D8B1431E421C5AF8222082B90130D1
:101D00000AEB800004E000231A461C46CDE70B4690
:101D10004BB1591E50F8042D002AF8D0CAF80030F3
:101D2000DAF8043003E00023CAF800300023CAF8D0
:101D30000430BDE8F08F70472DE9F04700295ED0F0
:101D40000F46304B1E6900242F4D1A4600F1010E3C
:101D5000DFF8B8C0A04615E010F804A0D5F804904C
:101D600009F00709B9F1010F11BF0CF801A00CF837
:101D700011A00CEB410181F801809360631C0134D8
:101D80009F423AD96B6803F00703012B11D0916889
:101D9000D2F80C904B1CB34228BF00239945DBD1ED
:101DA00001F07EFC10B1184B01229A752046BDE867
:101DB000F0879168D2F80C904B1CB34228BF0023E7
:101DC0009945EDD01EF814A010F8149049EA0A299C
:101DD000D5F804A00AF0070ABAF1010F04D00CF8F4
:101DE00001909360631CCAE70CF811900CEB410161
:101DF0004FEA192981F80190F3E71C46D0E70C4619
:101E0000CEE700BF90FF0120000C0040A03300206F
:101E1000F8B5002855D00546002955D00C68236830
:101E200083421CBF002384F82430206094F82430BF
:101E300022EA03061A4384F8242016F0010F0FD17A
:101E4000002716F0020F13D116F0080F19D116F063
:101E5000100F1FD116F0200F24D167BB3846F8BDF4
:101E600001232246211DC06800F064FF0746E8E711
:101E70000223224604F10801286900F05BFF0744B1
:101E8000E2E70823224604F10C01A86900F052FFA2
:101E90000744DCE710232246E118E86900F04AFF16
:101EA0000744D7E72023224604F11401286A00F0F2
:101EB00041FF0744D1E7204600F00AFD6FF06E07AE
:101EC000CCE76FF0AC07C9E76FF0AC07C6E7704727
:101ED0002DE9F843054688469146284C0423636063
:101EE00081609309013B0361254F03463E4653F849
:101EF000080F59689A68DB680FC61021384600F051
:101F00008AF94946404600F086F9BFF35F8F2763A0
:101F100043F2040323601B4B6363AB6DA363EB6D60
:101F2000E3632B6E23646B6E6364AB6EA364EB6E32
:101F3000E3642B6F23656B6F63650123236163602B
:101F40002246D36913F00F0FFBD00C4B02225A60CC
:101F500004225A600B4C20212046FFF7B8FFBFF344
:101F60005F8F0FCCA865E9652A666B660FCCA86603
:101F7000E9662A676B670020BDE8F883002C004201
:101F800080FF012000FF01202DE9F8432A4B5A6B06
:101F900059691961002A40D09368B3F5004F33D3D3
:101FA000254B5B6947F6FF74002514EB030845F1E8
:101FB0000009214E73689B69984782B200233169FA
:101FC000814206D94FF6FF7152184FF0000141EBE4
:101FD00003031949096A561843F10007B94508BFB8
:101FE000B04524D20A44144BDA61134BDB699BB22F
:101FF00013B9114B0122DA610F4BD8695B685B6939
:1020000080B29847BDE8F88394680B4B5B69002564
:1020100014EB030845F10009CBE7074B5B6947F672
:10202000FF74002514EB030845F10009C1E7024BDA
:10203000C3F81C80D9E700BF505A0020002941D0C6
:1020400038B50D46002840D1214C012384F83830A2
:102050000B686360DB689847E0601E4BB3FBF0F3EE
:10206000BC2090FBF3F00230206295F9043023721B
:10207000002121614FF6FF73A36147F6FF73E3610F
:1020800000220023C4E90A23616384F830106368E6
:102090001B681148984763681B690BB1208B9847F0
:1020A0000B4CE06963685B6980B2984763685B6862
:1020B0009847A0220021094801F008FC0223237060
:1020C000204638BD4FF0FF3070474FF0FF30F8E743
:1020D000505A00200090D003A51A0000B0590020EB
:1020E00070B582B005460C46826FC36FDB0043EAD1
:1020F0005273D100180E8DF80000180C8DF80100F5
:10210000180A8DF802008DF803300B0E8DF804309C
:102110000B0C8DF805300B0A8DF806308DF8071082
:1021200002F03F02372A94BFC2F13802C2F17802AE
:10213000D2B211492846FFF7B1FA0822694628466B
:10214000FFF7ACFA2B4653F8586F58689968DA686D
:1021500026606060A160E2601E6958699969DA6969
:1021600026616061A161E26100221146284600F00B
:102170009BFA02B070BD00BFC02400002DE9F04101
:10218000ADF6F82D06460F461446984602AD019569
:1021900028220021284601F099FB0CABAB610523F6
:1021A000EB6194B3A6B30023A360424639462046B0
:1021B00000F022FB0546E0B9D4F8B83813F1020F5D
:1021C0000AD0434622463946304600F0EBFB05462E
:1021D0006FF4877398420CD104F5D266304601F053
:1021E000CBFB054650B1304601F01EFC019800F0D3
:1021F0006FFB28460DF6F82DBDE8F0813B2201A9C2
:102200002069FFF705FE0546EDE76FF0AC05F0E746
:102210006FF0AC05EDE7704730B32DE9F04186462D
:10222000204B5A6BD0F80880C2B193684046002119
:1022300098451BD3002400259368E41845F1000558
:102240009369DBB1D3F808C014EB0C0645F1000725
:10225000B94208BFB04211D31A46EDE7C0F8088072
:10226000104B586301201AE0002070470D4BC3F853
:1022700034E0CEF818200024012004E0CEF8183015
:10228000C2F818E00020A8EB0404CEF80840DEF8FD
:10229000183023B1DEF808109A68521A9A60BDE827
:1022A000F08100BF505A002038B51A4B93F9000056
:1022B00000B138BD184C30220021204601F006FB49
:1022C000164D2C605B2323704CF2010323812046C2
:1022D000134B98472A681389002BFDD11169114BC4
:1022E000994206D00B4BFF221A700A4B93F900005B
:1022F000DFE791690C4B994203D0064BFE221A701E
:10230000F3E7D269094B9A42024B14BFFD22012226
:102310001A70EAE7BCFE012088FE0120B8FE012009
:102320005500000200010704D2DD706E4FD6C825AB
:102330002DE9F0414FF088431D6A05F400059A69C4
:1023400042F400329A610A21144801F06FFA144BEA
:10235000013BFDD1134B00221A70134B196813482F
:1023600001F004FB01F02EF801F00AF9DFF84480D7
:102370000F4F08E0A8F800600CE00B21384601F090
:1023800055FAFFF79BFA45F24376064C01F037F910
:10239000002DEFD12378002BF8D0EEE70C150000CC
:1023A000FFFF020021FF0120E05A002085390000D4
:1023B00018150000020500441E4B1F4A9342F0B45A
:1023C00038BF002103D203F8011B9342FBD11B4A03
:1023D000D2E9000150EA01034FF0000610D09468E2
:1023E000034602F10C076CB921B1014403F8016BFB
:1023F0009942FBD13A46D2E9000150EA0103EED1FD
:10240000F0BC704759B101F10C030C38801A1A4422
:102410003B461C1813F8015B25709342F9D111F06B
:10242000030318BF012303EB910107EB81073A4631
:10243000E1E700BF0000002000000020B40F000012
:102440001C4B1D4A1A604FF6A0029A814FF440328D
:102450005A601A46D369002BFCD1164A136843F020
:1024600002031360D369002BFCD1144B00221A62C3
:102470009A62DA6283F8342083F83C209A63DA8720
:102480001A609A60DA601A751A779A61094B5B686C
:1024900003F00703012B094B14BF4FF4A0524FF474
:1024A00020621A631A61034B80229A7504229A757E
:1024B000704700BF000C00400401124090FF012053
:1024C000800000000000000000000000000000008C
:1024D00000000000000000000000000000000000FC
:1024E00000000000000000000000000000000000EC
:1024F00000000000000000000000000000000000DC
:1025000000000000000000000000000000000000CB
:1025100000000000000000000000000000000000BB
:1025200000000000000000000000000000000000AB
:10253000000000000000000000000000000000009B
:10254000F0B51B4AD36A956A61B30E46AB422CD0F4
:10255000D2F830C00122174FA0F1020E164C0138FC
:102560000BE0E15C815401339C4598BF0023B242EB
:1025700013D2511CAB4211D00A46796801F0070111
:102580000129EED114F813100EF8121004EB4301D8
:10259000497800F812100133E6E71D46044BDD626E
:1025A0001046F0BD1D460A46F8E70022F6E700BFD8
:1025B00090FF0120000C0040A01F0020F0B40C6828
:1025C00000251560661C9E4229D80519005D10F093
:1025D000800F0BD13746049C14B1C4199C4227D8F4
:1025E0000F60002800DD1060F0BC704700F07F0035
:1025F00037189F4216D8042817D868B12C460544CE
:10260000002014F8016F46EA0020AC42F9D10028FE
:10261000E1DA6FF08B00E7E737460020E0E76FF084
:102620008300E1E76FF08300DEE76FF08B00DBE70C
:102630006FF08300D8E72DE9F04395B01D9D55B3A9
:102640001E46914688460746D5F8B80800F05EFE5B
:10265000044618B3436823B32C22002109A801F0D3
:1026600035F903230193052302930397CDF81080D6
:10267000CDF8149006961C9B079308956368A26892
:1026800001A92068984710F1AE0F08BF6FF487705A
:1026900015B0BDE8F0836FF48770F9E76FF48770C9
:1026A000F6E76FF48770F3E710B50446582200216F
:1026B00001F00CF9042323734FF00003012262F3AD
:1026C000061363730D4BA36503F1EE5303F5052366
:1026D00003F65163E3650A4B23660A4B63660A4BB4
:1026E000A3660A4BE3660A4B23670A4B6367002223
:1026F0000023C4E91E23002010BD00BF6A09E6675D
:102700003C6EF372A54FF53A510E527F9B05688CD3
:102710001F83D9AB5BE0CD1970B505460C46164654
:1027200001F070F8B6F5087F04DDA6F508734FF4E4
:1027300008761C44F31C9B082B60002E09DD06F173
:1027400008032B44A21914F8011B03F8011D94423D
:10275000F9D12A68B2B1531E511C55F8211059B94C
:10276000013205EB820200E003464BB1581E52F8DD
:10277000041D0029F8D02B606B686B60002070BDD1
:1027800000232B600023F8E7F0B583B005460C4624
:1027900016461F460023019300930B466A4601A983
:1027A00000F0D2FF00281EDB019B009A1344A342D5
:1027B0001CD1234601AA2946304600F013FA00280E
:1027C00017DB234601AA2946384600F00BFA0028F9
:1027D000A8BF002001DB03B0F0BD304601F0DEF8F9
:1027E0006FF0AA00F7E76FF0AA00F4E76FF0AA0015
:1027F000F1E76FF0AA00EEE700290CDD422927DCA3
:102800004368B3F1FF3F26D070B4002343600361F7
:10281000134C0E250AE0002AF2DA6FF0AC00704784
:10282000A94208DD013354F8345F75B1002AF7DDA1
:1028300066689642F6D185B14360094A342101FBAE
:1028400003230361002070BC70476FF0AB00FAE710
:102850006FF0A9007047002070476FF0AB00F2E7FF
:10286000B45A000070B582B006460D4614460122E7
:102870000192009323460A46022100F087F90028BE
:1028800020DB2368012B1CDD2B68F25CFF2A0FD0B4
:10289000E2B901332B602368013B2360002B13DD79
:1028A0002B68F356002BB4BF00206FF08B0009E0BB
:1028B0001E4496F90130002BB4BF6FF08B0000204E
:1028C00000E0002002B070BD0020FBE70020F9E727
:1028D00090B310B5044690F8243013F0010F17D1CF
:1028E00094F8243013F0020F16D194F8243013F02A
:1028F000080F15D194F8243013F0100F14D194F868
:10290000243013F0200F13D1002384F8243010BD9D
:10291000406801F043F8E3E7A06801F03FF8E4E71E
:10292000E06801F03BF8E5E7206901F037F8E6E7F9
:10293000606901F033F8E7E77047FEE7174BDA68A4
:1029400022F4E0621204120C42F0BF6242F4003240
:10295000DA60BFF35F8F62B6114AE02182F8031399
:102960000820106082F80C134FF48050106082F839
:1029700013134FF40020106082F816134FF48001F7
:1029800011605A6A42F480225A625A6942F0100277
:102990005A615A6A42F400325A62704700ED00E010
:1029A00000E100E04AB32DE9F04194B014469846A6
:1029B0000F460646D2F8B80800F0A8FC0546F8B164
:1029C000436803B33422002107A800F07FFF0323EC
:1029D000019309230293039604970594CDF8188078
:1029E0006B68AA6801A92868984710F1AE0F08BF64
:1029F0006FF4877014B0BDE8F0816FF48770704792
:102A00006FF48770F6E76FF48770F3E702680B687E
:102A10009A4220DC21DB531E22D430B49C1C50F897
:102A2000245051F82440A5421CD81DD392000432F2
:102A300010441144013BB3F1FF3F09D050F8044D5D
:102A400051F8042D944212D8F4D24FF0FF3000E038
:102A5000002030BC7047012070474FF0FF307047B6
:102A6000002070470120F4E74FF0FF30F1E701202C
:102A7000EFE7FEE708B5134B984703F01FF9124A3A
:102A8000136823F49F7323F0010343F011031360D1
:102A9000FFF751F9FFF7D4FCFFF703F800F0E6F970
:102AA00000F0B4FA00F07CFE08490020FFF7C6FAF7
:102AB000074B186000F09CFE00F06AFFFFF73EFF36
:102AC00008BD00BFD1FF012000240144D839000017
:102AD000DC5A0020154B5A6B1AB310B401468242DF
:102AE00004D18369ABB1002206E01A469369D3B1E1
:102AF0009942FAD18B6923B18C6898682044986018
:102B00004AB18B699361002000238B615DF8044B0F
:102B100070471A46F4E7054B5A6B92695A630120D5
:102B2000F2E7002070470020F0E700BF505A002075
:102B30000E4A38B5002313600D4A0E4C13600E4A3E
:102B40000E4D13600E4A13600E4A13600E4A536214
:102B500013610123936000F098FE00F096FEAC42F2
:102B600000D338BD54F8043B9847F8E7E85A0020F2
:102B700030FF0120EC0000002CFF0120F0000000DD
:102B800024FF012028FF012034FF0120F0B587B089
:102B900006460D4614461F46136805930C9B0DF11F
:102BA000130205A900F0E6FA98B99DF81330AB427C
:102BB00012D10D9B00930C9B03AA05A93046FFF789
:102BC000FDFC00280BDB03983860059B236007B0F1
:102BD000F0BD6FF08B00FAE76FF08B00F7E76FF056
:102BE0008B00F4E770B582B006460C4615461268B5
:102BF00001926A4601A92046FFF734FE034610B150
:102C0000184602B070BD304600F0B6FE90B9009A8A
:102C100001992144304600F00BFF034620B9019A88
:102C200000990A442A60EBE7304600F0B7FE6FF0E7
:102C30008D03E5E76FF06D03E2E7FEE72DE9F0476E
:102C400080460F46914600F039FE3E46D7B1002639
:102C50000E4C4D464FF0010A09E04B4512D8514643
:102C6000FFF76EFC002323700136B7420AD008EB51
:102C700006002378002BF2D101332278002AECD110
:102C8000AB42F9D93046BDE8F08700BFBDFE012058
:102C9000F0B4124B1880124800F5806700221646E7
:102CA00041F2210506E040F8043F02F5807292B23D
:102CB000B84210D011460824334683EA010C1CF4B4
:102CC000004F14BF85EA43035B009BB2490089B201
:102CD000013CF2D1E7E7F0BC704700BFBEFE012027
:102CE000AC5700202DE9F04121F00F0112F00F0F39
:102CF00008D0544202F00F0304F00F0458BF63429F
:102D0000D21A1032144656188518A6EB04082F1B49
:102D1000002C0ADD00F0CAFD0028FBD141463846F0
:102D200000F0BCFB20B1103CEFE70020BDE8F081D3
:102D30000120FBE72DE9F041146AD669B4421ED2A6
:102D40001F4616460D4680469069631C13624FF479
:102D50000A7303FB0400086000F00EFE034610B186
:102D60001846BDE8F08196F824301F4386F8247099
:102D7000102241462868FEF7D5FB0346F0E76FF0C6
:102D8000A903EDE72DE9F04105460E4614469846A5
:102D90009DF818700A46002100F098FD304646451F
:102DA00028BF404657B938B1013D231814F8016BCC
:102DB00005F8016FA342F9D1BDE8F0810028FBD0EE
:102DC0000544231814F8016B05F8016D9C42F9D1F4
:102DD000F2E7F0B170B582B0044615460E4640F6F3
:102DE0000412002100F072FD0023C4F8B8580193CA
:102DF000009304F58D6304F5107204F1180104F5D5
:102E0000D26000F023F9034638B96661184602B073
:102E100070BD6FF0AC03184670476FF07C03F5E7A8
:102E20002DE9F0414768D1F80480474510D00446A9
:102E30000D461646FFF7EAFDB0F1FF3F0CD0776074
:102E4000324629462046FEF709FF0020BDE8F08102
:102E50005760FEF795FEF9E7C6F804803246214632
:102E60002846FEF7FBFE0020F0E7FEE70E4B0122AE
:102E70001A601A46136913F0010FFBD10A4B4FF485
:102E8000A3621A6003221A7304225A71074ADA6194
:102E900033229A72064A0021116001225A721A46A0
:102EA0001369002BFCD1704700140040C0270900B3
:102EB000F0FF0120F0B583B0089D099C90B1064653
:102EC0009AB1ADB1BCB1D4F8B80810F1020F02D17B
:102ED000384603B0F0BD304601940095FFF7ABFBD8
:102EE0000746F5E76FF0A907F2E76FF0A907EFE7EC
:102EF0006FF0A907ECE76FF0A907E9E7104B08228C
:102F0000C3F88020BFF34F8FBFF36F8F4FF4805211
:102F1000C3F88020BFF34F8FBFF36F8F4FF4800251
:102F2000C3F88020BFF34F8FBFF36F8F4FF40022A1
:102F3000C3F88020BFF34F8FBFF36F8F704700BF80
:102F400000E100E038B5044600F084FC002C16DBFC
:102F500063090C4951F8235004F01F04E54005F0C3
:102F60000105012202FA04F4203341F82340BFF3A3
:102F70004F8FBFF36F8F00F076FC284638BD0025D9
:102F8000F9E700BF00E100E0303132333435363745
:102F900038394142434445464748494A4B4C4D4ED7
:102FA0004F505152535455565758595A61626364A1
:102FB00065666768696A6B6C6D6E6F707172737449
:102FC00075767778797A2B2F000000BF10B5054C05
:102FD000227832B9044B13B10448AFF300800123C7
:102FE000237010BD905A0020000000000000000077
:102FF00008B5034B1BB103490348AFF3008008BD7C
:1030000000000000945A0020000000000D4B012237
:103010001A601A46136913F0010FFBD1094B1022F5
:103020001A6003221A734FF47A429A8333229A72F7
:10303000054A0021116020225A721A461369002B9A
:10304000FCD170470020004074FF0120F8B50C4609
:1030500017461E46069D08B100F0D4FB14B1204669
:1030600000F0D0FB17B1384600F0CCFB16B130466B
:1030700000F0C8FB15B1284600F0C4FB079B13B154
:10308000184600F0BFFB0020F8BDFEE7431E13F119
:10309000030F0FD883B2042B0ED80A4A02EB431257
:1030A000D26982420AD15A0106498A5C42B101EBD7
:1030B0004310704700207047002070470020704781
:1030C00000207047B059002010B5044600F0A2F867
:1030D000B0B12046FFF7DAFF044678B1437843B930
:1030E0000020207560752070044600F027F8204607
:1030F00010BDFFF7EFFC00236370F1E70124F4E754
:103100000124F4E7A1B110B40A4B1B8841180A4C02
:1031100010F8012B82EA132254F8222082EA0323BA
:103120009BB28842F4D1034A13805DF8044B704788
:10313000704700BFBEFE0120B05700200B4B93F933
:103140000830002B08DB590903F01F03012202FAA3
:1031500003F3074A42F82130044B93F830301BB98F
:10316000024B012283F83820704700BF505A0020DC
:1031700000E100E06AB130B4154669B178B10C687D
:10318000621C9A420ED8035D2B700A60002030BC8E
:1031900070476FF0AC0070476FF0AC00F7E76FF06E
:1031A000AC00F4E76FF08300F1E738B505460C4654
:1031B000C0F30B037BB964B100F078FB0028FBD1AE
:1031C000284600F0BBFB40B1013CA4B205F5805598
:1031D000F1E7002000E0022038BD0120FCE7FEE717
:1031E00000100004000000010000100002000000B8
:1031F000A03500000000F0008C3700000100000046
:103200003C3A0000FE0FFFFF00000000FFFFFF0F31
:10321000FFFFFFFF08B50B4B93F8303083B9094B24
:1032200093F83830012B01D000200AE0054B002232
:1032300083F8382093F90800FFF784FE012000E0AE
:10324000012008BD505A0020ABB1F0B405461E461F
:10325000043A002402E00134B44209D052F8040FC9
:103260004368AB42F7D847693B448B42F3D300E055
:103270000020F0BC704700207047FEE738B5EFF340
:10328000108572B6084C20634FF4804363600F22B0
:1032900062601140A160A36000F03CF94FF400436C
:1032A000A36085F3108838BD000600444FF08843C2
:1032B0000022C3F8B020084AC3F8B02002F12B4224
:1032C000A2F54B12A2F6AB42C3F8B02003F520637F
:1032D00001229A641B6CFEE7556699AA0A4B5B6B48
:1032E00073B168B1002105E09A68801A99609B6902
:1032F00033B128B19A688242F6D39A68101A98605E
:10330000014B5A691A617047505A00200A4B1B68DA
:1033100098420AD0084A0123D168814206D001337D
:103320000C32082BF8D100207047002303EB430335
:10333000014800EB8300704728FE012070B5054668
:103340000C461646FEF7B0FF002808DB6368052B25
:1033500008D132462146284602F008FA70BD6FF4C3
:103360008770FBE76FF48770F8E770B506460D4687
:103370001446FFF7CBFF034620B11E605D609C60E2
:10338000002070BD6FF00100FFF7C0FF034600286A
:10339000F3D16FF08300F4E708B5084B5B7A63B1B3
:1033A000064A937A3321917203F0FF002BB1044B4C
:1033B0001B6813B1024A5168984708BD00200040BD
:1033C00074FF0120094A136823F002031360136994
:1033D00013F0020FFBD1054A136843F00203136098
:1033E000136913F0020FFBD1704700BF00140040B7
:1033F00008B5084B5B7A63B1064A937A3321917220
:1034000003F0FF002BB1044B1B6813B1024A516853
:10341000984708BD00140040F0FF012093B1F8B5B3
:103420001F4616460D4604460021284600F04EFA77
:103430003346224629460020B84700280CBF2846BC
:103440000020F8BD704770B5ADF50A7D04460E4604
:103450001546684600F0D6F93146684600F080F916
:103460002A4669462046FFF7DBFC0DF50A7D70BD54
:10347000012911D930B44D08013901440138002324
:103480000A7810F8014F01F8014902700133DBB2EC
:10349000AB42F5D330BC70477047704708B5024661
:1034A00008461168064B19645168196591681966D8
:1034B000D2681A670221FFF7E1FE012008BD00BFB4
:1034C00000060044084A537943F08003537113699E
:1034D00013F0040FFBD1044A537913F0E00FFBD132
:1034E000014B988A704700BF0020004008B510B11A
:1034F000012805D008BD0621044800F097F9F9E736
:103500000621034800F092F9F4E700BF68130000B9
:1035100070130000064B00221A62064A1A6202F17A
:103520002B42A2F54B12A2F6AB421A62704700BFC3
:1035300000060044556699AA074B00221A609A813A
:103540005A601A46D369002BFCD1034BBF221A756F
:1035500000221A76704700BF000C004008B50B68C7
:10356000032B06D14B68043B012B05D8FFF7E6FE81
:1035700008BD6FF48770FBE76FF48770F8E770475A
:1035800008B50121084600F0A3F8012000F0DCF99D
:103590000021024800F0DEF908BD00BF8D380000B0
:1035A00000000001FFFF0700000000000100000014
:1035B00000008001FFFF0700000000000100000084
:1035C00008B5064B1B7813B1012B04D008BD034B83
:1035D00001221A70FAE7FEF7ABFE00BFEC5A00209A
:1035E00000230360436000F1080200F50A701946E9
:1035F000134603F8011B1A468342F9D1704700B500
:103600008DB0684600F038F9009B23B19DF82C106E
:10361000684600F087F90DB05DF804FB08B5044B6F
:103620001B6B13F4806F02D0024B1B68984708BDD8
:10363000000A00440402000161390000E93600007C
:1036400001370000B9390000C9370000DD3700003C
:10365000C534000030B501390024A24206D0035D14
:1036600001340D5DAB42F8D0581B00E0002030BDA6
:1036700008B500F051F8034B00221A70FFF7A2FEC4
:1036800008BD00BF21FF012008B5034B1B6813B123
:10369000024A1068984708BDFCFF0120D85A002054
:1036A000044A9368D06883423EBF024A12699B185D
:1036B000181A704790FF0120044BD86A9B6A984201
:1036C00082BF024A126B9B18181A704790FF0120A4
:1036D000044B93F8342083F8340083F83C101046F0
:1036E000704700BF90FF0120044A136843F00203B3
:1036F0001360136913F0020FFBD1704700200040E4
:10370000044A136823F002031360136913F0020FD5
:10371000FBD1704700200040044A136823F00203E5
:103720001360136913F0020FFBD1704700140040BF
:10373000044B1B69834232BFC01AC3F58033C018E3
:10374000704700BF505A002010B582B00124019488
:10375000009313460A463021FFF718FA02B010BD55
:1037600038B505460C4600F04DF8AC60003418BF83
:1037700001242C6038BD10B5431E0A44914200D18B
:1037800010BD11F8014B03F8014FF7E7A73900000E
:10379000E52C0000ED380000AB310000393A0000A4
:1037A00008B5034B186B0021FFF768FD08BD00BF8B
:1037B0000006004410B5034B1C69FFF771FF013C84
:1037C000201A10BD90FF0120034B98831A461369FD
:1037D00013F0400FFBD1704700200040034BD8830B
:1037E0001A46136913F0800FFBD170470020004088
:1037F00008B5002202491046FFF7B7FD08BD00BF1B
:103800005D35000008B50021016041604FF4087289
:10381000083000F05BF808BD08B500210160416088
:103820004FF40872083000F051F808BD08B5034B9A
:103830001B7803B108BDFEF77FFAFBE720FF0120EC
:1038400000B5ADF6B44D01A901F0DEFD0DF6B44DA5
:103850005DF804FBEFF3108072B6BFF35F8FB0FA30
:1038600080F04009704718B1BFF35F8F62B67047B0
:1038700072B6BFF35F8F704710B5044600F098F83A
:103880002060012384F82C3010BD704710B9024B22
:1038900001221A70704700BFBDFE012008B5134613
:1038A0000A461946FFF767FF012008BD024B18685A
:1038B000C0F3C030704700BF00060044024BD88FF1
:1038C0000022DA87704700BF90FF012002440346C0
:1038D000934200D1704703F8011BF9E703461A46EB
:1038E000013311780029FAD1101A704708B508463B
:1038F0001946FFF7D3FF002008BD08B56FF001029D
:103900000021FEF7D1FE08BD08B50020FFF7B2F890
:1039100000F05EF8FCE7A0F16103192B98BF00F0FE
:103920005F00704708B511B108B101F08BFB08BD0D
:10393000014B1888704700BFBEFE012008B5042166
:10394000FFF79CFC012008BD08B1014A9063704755
:1039500090FF0120014B18625962704790FF0120CF
:10396000014B18605960704774FF0120014B1860CB
:1039700059607047F0FF012008B508B1FFF742FF1A
:10398000002008BD014B01221A70704721FF012061
:10399000014B00221A707047EC5A002008B508B19C
:0E39A000FFF73AFF08BD08B5FFF7FAFE08BDB5
:1039B00000487047E0310000004870470090D00395
:1039C00008B5FFF747FF08BD08B5FFF74CFF08BD76
:1039D00008B5FFF7F5FD08BD3836000016000000F9
:1039E0002A8648CE3D0301042B810400060000BF57
:1039F0002B8104001C0000BF2B810400080000BFC5
:103A00002A8648CE3D0301012B810400210000BF1E
:103A10002A8648CE3D0301072B810400220000BF07
:103A20002B810400230000BF08B5FFF7D9FD08BDB6
:103A300008B5FEF771FE08BD002070475300C409A9
:1050000010B54FF08843D3F8E04024F03002C3F8E5
:10501000E02068B1012810D000204FF08843C3F889
:10502000E040013810F1030F8CBF0020012010BDBB
:105030004FF0807000F0E8F9EFE74FF0847000F077
:10504000E3F9EAE72DE9F84F0746884642F2107285
:1050500041F210019848FDF7F1FD002800F08C8125
:10506000FEF706FB944B1C68944B1C60250CABB2FE
:10507000934A1380A6B25680043B0E2B00F26E8139
:10508000DFE813F054001F0026017D016C016C0164
:1050900084016C016C016C016C016C016C01870076
:1050A0000F00FEF703F90020854B1D88072D00F047
:1050B00067810A2D00F06B812D04042828BF02208F
:1050C0006FE17D4BD3F804907D4BC3F804904346C9
:1050D0003A4649464846FEF7B7F80746002800F02A
:1050E0005E81A4B2038803FB0494436842691344BD
:1050F0009C4280F054818369002B00F076811A680D
:10510000002A00F064819047B86A49EA0009F86A09
:1051100009EA0000BB69002B00F02281DB68002B4C
:1051200000F020813146984780B2BDE7624B586855
:10513000634B586043463A460146FEF785F80446FD
:10514000002800F02C8142690088B2FBF0F6636809
:10515000B1B200FB01311A44914200F22081A269F0
:10516000002A00F042811168002900F0248188475C
:105170006068A36A1843E36A1840A369002B00F033
:10518000F380DB68002B00F0F180B1B2984780B269
:105190008AE7494BD3F804A0494AC2F804A0D3F8DF
:1051A0000890C2F80890DC68D4601033136143465D
:1051B0003A460AEB09015046FEF746F80746002832
:1051C00000F0ED80836A4AEA030AC36A0AEA030A26
:1051D00083696BB11A6812B19047BB6943B15B68D0
:1051E00033B14A46514637489847002840F0C080BE
:1051F000012E07D0022E32D00025AC4214BF02206F
:10520000002051E75646BB694BB1D3F80880B9F18D
:10521000000F4FD00025DFF8B4A02B4F05E04FF072
:105220000008F4E7B9F1000FE7D0DAF800204A45AA
:1052300028BF4A469346434639463046FEF7EEF8C5
:105240005E44A9EB0B09BBF1000FEBD00BEB07029F
:105250003B4613F8011B0D449A42FAD1E2E7564649
:10526000BB6923B3D3F808804FF6FF70FDF710FD3C
:10527000B9F1000F17D0DFF854A0134FDAF800503F
:105280004D4528BF4D4643462A4639463046FEF72F
:10529000C5F82E44A9EB050929463846FDF732FF2B
:1052A000B9F1000FEAD1FEF743FB0546A5E74FF041
:1052B0000008D9E74D46A0E7A04700207CFF012069
:1052C000C45A0020B047002000000020F8FF012051
:1052D000484A5068484B58609168996043463A463E
:1052E0000144FDF7B1FF0746002858D0836913B188
:1052F0001B6803B19847404B5E68BA6A1643FA6A66
:105300001640D3F808803C6BB8F1000F32D0DFF8BC
:10531000F0A04FF0000BDFF8EC90DAF800504545B4
:1053200028BF4546BB6993B19B682A46494630462B
:10533000FEF774F82E4425F0030149444B468B4296
:1053400007D053F8042B9442F9D00220ACE65B4618
:10535000EBE7B8EB0508E0D10020A5E60320A3E6C3
:105360000020A1E600209FE600209DE600209BE6AD
:10537000022099E6002097E64FF0FF3019E0012067
:1053800040F4E0201D4B186004210EE0002040F4A2
:1053900020201A4B186000225A60082105E02D04D5
:1053A00002202843154B18600421144800F024FD06
:1053B0000020BDE8F88FA06A0343E06A1840D36874
:1053C000002B7FF4E2AE0C4B1D88002074E6826A4D
:1053D00049EA0209C06A09EA0000DB68002B7FF491
:1053E000A1AE054B1D88002066E6034B1D880020FA
:1053F00062E600BFA0470020C45A0020AC5A00203B
:10540000F8FF0120000000202DE9F04F9DB0054677
:105410000C460CAECB4F0FCF0FC60FCF0FC60FCF22
:105420000FC697E80F0086E80F0000230B932E4667
:105430000493059306930793089309930A93022311
:105440008DF8243001238DF8253055238DF82A302E
:10545000B5F1807F0DD0B5F1847F14BF02270127FD
:105460003369013B13F1030F05D900201DB0BDE8DE
:10547000F08F0027F4E74FF4007229462046FEF72C
:105480007AF90023A36023746374A374E374A3758F
:105490001C2204A92046FEF7DDF808B10020E5E74C
:1054A00004F5007A04F6043B04F60C4804F68C4933
:1054B000FEF79EF920210CA8FDF7DAFF202114A8A1
:1054C000FDF7D6FFAB7D5BB995F82430002B40F09B
:1054D000A8809D4B013BFDD1306A00F50070C5E707
:1054E0004046FEF70AFA4FF4007229462046FEF7BE
:1054F00042F9002184F8B711482204F5DC70FEF768
:10550000E5F94FF4F67204F114014046FCF7C6F8D1
:1055100049464046FCF7E4FD4046FEF730F8AB7DD7
:10552000012B61D0AB7D022BCED10022114650461B
:10553000FDF74FFC0723524620215846FCF71EFE7C
:105540000DF1300CBCE80F00C4F82002C4F824129E
:10555000C4F82822C4F82C32BCE80F00C4F830028A
:10556000C4F83412C4F83822C4F83C320823C4F812
:1055700018320023C4F81C320DF1500CBCE80F00A7
:10558000C4F84804C4F84C14C4F85024C4F8543483
:10559000BCE80F00C4F85804C4F85C14C4F86024D4
:1055A000C4F864340823C4F840340023C4F84434F5
:1055B0000123C4F86836C4F8703695F8B711CDF8F1
:1055C00004A00BAB009320234A4605F5DC70FDF7E1
:1055D00071FC03903846FDF789FF039BD3B91C216A
:1055E0005A48FEF723F96FE73846FDF77FFF202280
:1055F00005F5DC714846FEF72DF820B91A2154480C
:10560000FEF714F98EE718215248FEF70FF94FF014
:10561000FF302BE71A215048FEF708F94FF0FF3012
:1056200024E74046FEF769F9326A05F50071404605
:10563000FCF734F849464046FCF752FD95F8243013
:10564000012B62D095F82430022B7FF442AF002268
:1056500011465046FDF7BDFB072352462021584610
:10566000FCF78CFD0DF1300CBCE80F00C4F82002F3
:10567000C4F82412C4F82822C4F82C32BCE80F0065
:10568000C4F83002C4F83412C4F83822C4F83C32EA
:105690004FF0080BC4F818B24FF00008C4F81C8291
:1056A0000DF1500CBCE80F00C4F84804C4F84C14C9
:1056B000C4F85024C4F85434BCE80F00C4F85804AB
:1056C000C4F85C14C4F86024C4F86434C4F840B46A
:1056D000C4F844840123C4F86836C4F8703695F8D9
:1056E0002810CDF804A00BAB009320234A4605F107
:1056F0002900FDF7DFFB04463846FDF7F7FED4B975
:1057000014211648FEF792F8E3E63846FDF7EEFE60
:10571000202205F129014846FDF79CFF20B91521FB
:105720000F48FEF783F88DE713210E48FEF77EF849
:105730004FF0FF309AE612210B48FEF777F84FF052
:10574000FF3093E678130000FFFF0500F013000020
:10575000D4130000B8130000101400005814000007
:10576000401400002C140000701400002DE9F04FCC
:10577000ADF27C4D0D46CB691B691C68C54E3046A9
:10578000FEF70CF9EB691B691022D9683046FBF76C
:10579000C9FEE4B2231D1946029300270097234651
:1057A00006F108028946BC48FDF7ECFABB4E2644D8
:1057B00004F10C0239463046FEF788F806EB04087F
:1057C00008F10C0B442239465846FEF77FF84FEAA1
:1057D000490A5246394608F15000FEF777F8302260
:1057E0003946AF48FEF772F8DFF8C082D8F80030CB
:1057F0004FF480725A80D8F800301A7902F0FE0215
:1058000067F3C3021A71A7B29F824FF480521A82C3
:1058100007EB020909F10409A3F8129007F6080240
:105820005600DE8206F144029A8350221A70D8F89C
:1058300000004CF2010303819A4B9847D8F80030DE
:105840001B8923B118460DF27C4DBDE8F08F302244
:1058500000219348FEF73AF88E48FEF79FF8EB696F
:105860001B691022D9698B48FBF75CFE0BEB040324
:105870000C33AAF1080A05930AEB0301069101F122
:105880000803039303EB040A0AF1040A4FF000082B
:10589000CDF800802346844A02995046FDF772FAFB
:1058A0007C48FEF77BF8EB691B691022196A79487E
:1058B000FBF738FEA2440AF1040ACDF80080234623
:1058C000794A02995046FDF75DFA4FF0010C8DF8C8
:1058D00077C4A2440AF1040ACDF8008001230DF236
:1058E000774202995046FDF74DFA6A48FEF756F89E
:1058F000EB691B69102299696648FBF713FECDF826
:1059000000802346684A02995846FDF73BFA6148F1
:10591000FEF744F8EB691B69102219695D48FBF733
:1059200001FEA2440AF1040A0AEB040B0BF1040B7A
:105930000BEB0403043304931819011D0846CDF83A
:1059400000802346584A02990790FDF71BFAEA693E
:105950009369CDF800809B00203202995046FDF7F4
:1059600011FAEA69D2F84032CDF800809B0002F5C6
:105970001272DDF808A051465846FDF703FAEA69AD
:10598000D2F86834CDF800809B0002F58E62514653
:105990000498FDF7F7F96B694FF0010CCDF800C0E2
:1059A000A34228BF23462A6951460398FDF7EAF926
:1059B0000DF5137C6046FDF7F1FF0DF1240C6046F8
:1059C000FDF7ECFF09AB93AAE968A868FCF7DCFED9
:1059D000034600287FF436AF939BCDF800809B00F0
:1059E00095AA51460598FDF7CDF9099B0698001B2D
:1059F000CDF800809B000BAA51460430FDF7C2F998
:105A0000E200079820442C3241460430FDF75EFF47
:105A1000264C2368A3F80280226857844FF48053F1
:105A20009382A2F8169007F2044007EB80003B181F
:105A300003F118011182568207EB47010B449BB218
:105A4000194489B201F1300CA2F81CC0243313832D
:105A500097841430D08307F10C03334453833437D5
:105A60000F4417845523137020684CF201030381FF
:105A70000F4B98472368188920B9AB6901221A6037
:105A80000346DFE648F202039842F9D1AB690022EF
:105A90001A60F5E700FC0120001001020410010269
:105AA00088FE01200900000208FC0120B8FE012048
:105AB0002D0000020E000000080000008801000018
:105AC00094010000B4010000D4010000F4010000C2
:105AD0001402000030020000E83900000500000058
:105AE000B600000001000000100000000A000000E5
:105AF000500200005C02000080020000A4020000CE
:105B0000C8020000EC02000010030000F0390000A1
:105B100005000000CC00000001000000140000009F
:105B20000C00000034030000400300006C03000080
:105B300098030000C4030000F00300001C040000F0
:105B4000F839000005000000B80000000100000066
:105B50001800000001000000480400005404000088
:105B600088040000BC040000F004000024050000CC
:105B700058050000003A000008000000080200007C
:105B8000010000001C0000000E000000880500005D
:105B900094050000D00500000C0600004806000037
:105BA00084060000C0060000083A0000050000005E
:105BB000D1000000010000001E00000004000000F1
:105BC000FC060000080700004807000088070000E6
:105BD000C80700000808000048080000E03900007D
:105BE000080000000B02000001000000200000007F
:105BF000070000008808000094080000D808000092
:105C00001C09000060090000A4090000E809000068
:105C1000103A0000080000000E0200000100000021
:105C2000300000000F0000002C0A0000380A0000BD
:105C30009C0A0000000B0000640B0000C80B000071
:105C40002C0C0000183A000005000000D2000000F3
:105C5000010000004200000010000000900C000055
:105C60009C0C0000200D0000A40D0000280E000078
:105C7000AC0E0000300F0000203A000005000000CC
:105C8000D30000000100000000000000FFFFFFFF44
:105C90000000000000000000000000000000000004
:105CA00000000000000000000000000000000000F4
:105CB0000000000000000000000000004FF08842DB
:105CC000D2F8003113F4007FFAD0002343490133A6
:105CD0004A6A12F0010F11D1B3F5FA5FF7D13F4BC9
:105CE0005B6A13F0010F0CD13C4A536843F4807394
:105CF0005360536A13F0010FFBD002E0B3F5FA5F73
:105D0000EDD2374AB2F8BA3403F0FD03A2F8BA3440
:105D10000022324901324B6A03F00303032B13D0F4
:105D2000B2F5FA5FF6D12D4B5B6A03F00303032B48
:105D30000DD02A4A536843F400735360536A03F04A
:105D40000303032BFAD102E0B2F5FA5FEBD24FF076
:105D500088430022C3F8B020224AC3F8B02002F1E1
:105D60002B42A2F54B12A2F6AB42C3F8B02003F5CA
:105D700020631D4A1A624FF480721A6001229A60F1
:105D80001A46136813F0010FFBD1184B48F20902B1
:105D9000C3F8502140F201221A674FF400429A677B
:105DA0004FF08843124A1A6600221A674FF01942D0
:105DB000C3F880200F4AC3F8C02047F2CE42C3F890
:105DC000E0204FF03332C3F8B020044B5A6842F061
:105DD00010025A604FF080721A6070470040014113
:105DE00000200141556699AA080100C0000A00443C
:105DF00000900009CF01012008B5FBF79DFF08BD09
:020000040004F6
:105F8800FFFF000000E00E8438FC745F38441214F0
:085F980003000071000000008D
:045FBC0000000010D1
:020000040100F9
:1000000000000000000000004D43485000000000C8
:100010000100000002010200000055000000000184
:1000200080B0020002000000473045022100BFD925
:10003000D96C074840F190FCB11808983EBFA29EC9
:1000400072291FBB13A021F1A99994BB418F0220F3
:100050000BCCBC17F7148DDCB82C4C543DB923F2F3
:100060003A1B734EA63A4828237FE2463F7CD04E87
:100070000000000000000000000000000000000080
:100080000000000000000000000000000000000070
:100090000000000000000000000000000000000060
:1000A0000000000000000000000000000000000050
:1000B0000000000000000000000000000000000040
:1000C0000000000000000000000000000000000030
:1000D0000000000000000000000000000000000020
:1000E0000000000000000000000000000000000010
:1000F0000000000000000000000000000000000000
:1001000000000000000000000000000000000000EF
:1001100000000000000000000000000000000000DF
:1001200000000000000000000000000000000000CF
:1001300000000000000000000000000000000000BF
:1001400000000000000000000000000000000000AF
:10015000000000000000000000000000000000009F
:10016000000000000000000000000000000000008F
:10017000000000000000000000000000000000007F
:10018000000000000000000000000000000000006F
:10019000000000000000000000000000000000005F
:1001A000000000000000000000000000000000004F
:1001B00000000000000000473045022073C895D2BF
:1001C00028A8DC13A33A3617FAAABD0A240BF8585C
:1001D000FD5D3BCCB990246EB19AFD1D02210083D8
:1001E0009A158F101E62539E53F00ABF43CAA43E55
:1001F0005A61E68CDD3D5F1A0CA48292B698250008
:10020000F88B0120B1BC0101BFA6010187A8010143
:100210000BB50101AFBC01015BD30101000000007F
:10022000000000000000000000000000B184020196
:10023000BBAD01010000000041FA0101C9730201D8
:1002400019730201E1060201970C02017199020182
:10025000970C0201970C0201970C0201970C020106
:10026000970C0201970C0201970C0201970C0201F6
:10027000A10D0201970C0201970C0201970C0201DB
:10028000B97A0201970C0201970C02014573020131
:10029000970C0201970C0201970C0201CD2C020170
:1002A000970C0201970C0201970C0201970C0201B6
:1002B000970C0201970C0201970C02018DEB0101D2
:1002C000457D0101970C0201970C0201970C020178
:1002D000970C0201970C0201E5030201970C020141
:1002E0000820200038B000200000000000000000BE
:1002F0000920200038B000200000000000000000AD
:100300000A20200038B0002000000000000000009B
:100310000B20200038B0002000000000000000008A
:100320000C20200038B00020000000000000000079
:100330000D20200038B00020000000000000000068
:100340000E20200038B00020000000000000000057
:100350000F20200038B00020000000000000000046
:10036000002032002CAF0020000000000000000040
:10037000012032002CAF002000000000000000002F
:10038000022032002CAF002000000000000000001E
:10039000032032002CAF002000000000000000000D
:1003A000042032002CAF00200000000000000000FC
:1003B000052032002CAF00200000000000000000EB
:1003C000062032002CAF00200000000000000000DA
:1003D000072032002CAF00200000000000000000C9
:1003E000F8B500BFF8BC08BC9E467047613E0201EC
:1003F000F8B500BFF8BC08BC9E4670473D3E020100
:10040000D687000001000000F8B000201C000000AA
:1004100000000000C5A40020010000000000000052
:10042000EAB500200200000000000000E0B3002058
:100430000400000000000000C0AF00202800000001
:1004400000000000E4B300200800000000000000ED
:100450000EB6002001000000000000000000002097
:100460000C00000000000000ECB3002004000000BD
:100470000000000038B00020200000000000000054
:100480002CAF00203200000000000000F0B300207C
:10049000040000000000000034B300200800000049
:1004A000000000000FB60020010000000000000066
:1004B000F4B30020040000000000000094B200200B
:1004C0002000000000000000EDB500200100000049
:1004D00000000000FAB5002002000000000000004B
:1004E000EEB500200200000000000000F8B300207C
:1004F0000800000000000000F1B50020010000002D
:1005000000000000FEB50020020000000000000016
:1005100000B400200400000000000000F8AC00203F
:100520006000000000000000F2B5002001000000A3
:100530000000000004B400201800000000000000CB
:10054000C8A4002078030000000000003CB3002095
:10055000080000000000000024AC00207000000033
:100560000000000090B10020140000000000000016
:1005700000BA00200800000001000000312E302EDB
:10058000302E300022B900200200000001000000DF
:100590000800000018BA002005000000010000005B
:1005A0004D4348500000000016BA00200200000031
:1005B000010000000500000008BA0020070000004C
:1005C0000100000057425A343531000022BA0020A1
:1005D00002000000010000000700000010B600202B
:1005E00002000000000000000CB600200200000025
:1005F0000000000008B6002001000000000000001C
:1006000004B60020010000000000000000B6002039
:100610000100000000000000FEB900200200000000
:1006200001000000010000003CBA002004000000AE
:100630000100000001000100CCB600209000000085
:10064000010000003A3E02011CA70201165D0101F3
:10065000100000010236020140A002014A340101EB
:10066000130000010CA7020100B600203EBA0020D2
:10067000010006090236020118A002012E0F010135
:1006800013000001ECA6020108B60020FEB900200C
:10069000F7000D90AA2B020110B600205A36010176
:1006A00002002199023602012CA00201CA120101A6
:1006B00013000001FCA6020104B600203CBA002091
:1006C000F7000D90AA2B02010CB60020B6590101CB
:1006D0000200219944B9002014000000010000002C
:1006E00000000000CCB600201CB00201000108018F
:1006F00002000000FCB50020020000000000000025
:10070000F8B500200200000000000000F4B5002051
:100710000100000000000000F0B500200100000012
:1007200000000000ECB50020010000000000000007
:10073000A8B9002030000000010000007E3B07FF48
:100740001C51492FB3398A4C43535349B39B7234DC
:10075000BEECD4A8F443418843535349169624472A
:10076000C62361BAD94B4D1E435353496CB900207F
:1007700013000000010000001CA7007E3B07FF1CC7
:1007800051492FB3398A4C435353490080B9002053
:1007900013000000010000000CA500B39B7234BEE2
:1007A000ECD4A8F4434188435353490094B9002042
:1007B000130000000100000018A20016962447C68E
:1007C0002361BAD94B4D1E435353490058B90020F9
:1007D0001400000001000000000000005CB70020D1
:1007E00024B00201A000A80002000000D8B9002037
:1007F000100000000100000055E405D2AF9FA98F52
:10080000E54A7DFE4353534940BA002006000000EC
:100810000100000001000100010000005CB70020A1
:1008200090000000010000003A3E0201D8B900200B
:10083000B29B0101100000010236020194B90020B0
:10084000AA81010113000001C8B90020ECB5002005
:1008500044BA0020F7000D10AA2B0201F8B50020C1
:10086000C6990101020021110236020180B900205F
:10087000FE71010113000001B8B90020F0B500209D
:1008800042BA0020F7000D10023602016CB90020B8
:10089000866C010113000001A8B90020F4B5002006
:1008A00040BA0020F7000D10AA2B0201FCB5002071
:1008B000DA88010102002111B8AD002058000000C3
:1008C0000000000060AF00203000000000000000C9
:1008D00044B30020080000000000000004B3002022
:1008E0000C000000000000002CAA00200001000005
:1008F00000000000B0AE002040000000000000003A
:100900004CB30020100000000000000010B30020D5
:100910000C0000000000000040A80020C8000000FB
:10092000000000001CB400200400000000000000D3
:10093000F3B5002001000000000000001CB30020FF
:100940000C000000000000000C000020040000006B
:100950000000000024B90020200000000100000079
:10096000064A136823F49F7323F0010343F0110335
:100970001360092300BF013BFCD1704700240144F0
:10098000100000204C0000000000000020B40020F7
:10099000240000000000000024BA00200400000031
:1009A00001000000AAAAAAAA44B400200400000082
:1009B00000000000B000002000A0000000000000C7
:1009C00048B4002010000000000000005CB30020CC
:1009D000080000000000000058B4002008000000DB
:1009E00000000000A4B1002028000000000000006A
:1009F00060B40020180000000000000094AC00204B
:100A0000640000000000000078B400201400000022
:100A100000000000CCB10020280000000000000011
:100A20008CB400201000000000000000F4B1002091
:100A300014000000000000009CB40020040000002E
:100A40000000000008B200202800000000000000A4
:100A5000A0B40020080000000000000028BA002018
:100A6000040000000100000004000000F5B50020B3
:100A7000010000000000000027B600200100000077
:100A800001000000010000005C00002002000000E6
:100A90000000000058AD00206000000000000000D1
:100AA000ACAB00207800000000000000A8B40020DB
:100AB0000800000000000000F4B900200900000058
:100AC00001000000000024496D92B6DBFF00000029
:100AD000600000203C00000000000000F6B500208F
:100AE0000100000000000000B0B40020040000007D
:100AF00000000000F7B50020010000000000000029
:100B0000B4B40020100000000000000058B0002025
:100B1000400000000000000001B6002001000000BD
:100B200000000000ACB800202C0000000100000014
:100B30001020000000000049EA010111210110BA53
:100B400000200000000012220000000000811702B7
:100B50000113230311BA002000000000E8B90020AF
:100B60000C00000001000000400110BA002041020A
:100B700014BA002010BA0020060000000100000096
:100B80000055FFFF000000002CBA00200800000004
:100B900001000000000048C2000048C2D0B500209B
:100BA000020000000000000028B300200C0000003C
:100BB000000000005EAF0020020000000000000006
:100BC00002B600200100000000000000C4B40020B4
:100BD00004000000000000008EB1002002000000B0
:100BE0000000000008A900209400000000000000A0
:100BF00003B60020010000000000000030B2002019
:100C0000140000000000000078B100201600000071
:100C10000000000044B200201400000000000000AA
:100C20007FB9002001000000010000000500000065
:100C300064B3002008000000000000009C000020B9
:100C4000110000000000000014B100201C00000092
:100C500000000000C8B400200800000000000000F0
:100C6000B0A0002015040000000000006CB30020BC
:100C70000800000000000000D0B400200C000000BC
:100C80000000000074B30020080000000000000015
:100C9000DCB400200800000000000000DEB30020EB
:100CA000020000000000000005B600200100000066
:100CB00000000000D9B30020050000000000000083
:100CC00098B000202000000000000000C6A4002012
:100CD00002000000000000009CA90020900000001D
:100CE000000000007CB300200800000000000000AD
:100CF00058B20020140000000000000093B900204A
:100D00000100000001000000010000001DBA0020E9
:100D10000500000001000000020700A62A000000F4
:100D2000E4B40020100000000000000006B600201F
:100D30000100000000000000CCB30020070000000C
:100D400000000000B4B2002010000000000000000D
:100D500007B600200100000000000000F4B40020ED
:100D6000140000000000000084B300200800000010
:100D70000000000008B50020040000000000000092
:100D8000C4B2002010000000000000008CB300205E
:100D900008000000000000000CB500200C0000005E
:100DA0000000000009B60020010000000000000063
:100DB00094B300200800000000000000B8B000203C
:100DC00020000000000000000AB600200100000022
:100DD0000000000018B500200C000000000000001A
:100DE0000BB60020010000000000000024B5002028
:100DF000080000000000000012B600200100000002
:100E0000000000002CB500200400000000000000DD
:100E100013B600200300000000000000D2B500203F
:100E20000600000000000000ECB70020C000000039
:100E30000100000003B2020103B2020103B2020189
:100E400003B2020103B2020103B2020103B20201C2
:100E500003B2020103B2020103B2020103B20201B2
:100E600003B2020103B2020103B2020103B20201A2
:100E700003B2020103B2020103B2020103B2020192
:100E800003B2020103B2020103B2020103B2020182
:100E900003B2020103B2020103B2020103B2020172
:100EA00003B2020103B2020103B2020103B2020162
:100EB00003B2020103B2020103B2020103B2020152
:100EC00003B2020103B2020103B2020103B2020142
:100ED00003B2020103B2020103B2020103B2020132
:100EE00003B2020103B2020103B2020103B2020122
:100EF00003B20201D4B20020200000000000000074
:100F000016B6002001000000000000009CB3002085
:100F1000080000000000000030B500200C000000B8
:100F2000000000003CB500200400000000000000AC
:100F300030B10020180000000000000017B60020AB
:100F4000010000000000000040B500200C0000007F
:100F500000000000D8B500200200000000000000E2
:100F6000A4B30020180000000000000048B10020D9
:100F7000180000000000000018B60020010000006A
:100F800000000000DAB500200400000000000000AE
:100F9000F0AE00203C0000000000000019B6002068
:100FA00001000000000000004CB500201800000007
:100FB00000000000D8B00020200000000000000069
:100FC00064B5002008000000000000001AB60020F0
:100FD0000100000000000000E8AF00202800000031
:100FE000000000006CB500200400000000000000BC
:100FF0001BB60020010000000000000028B6002001
:10100000A40000000100000020200001FFFFFFFFFE
:10101000FFFFFFFFFFFFFFFF0000000000000000D8
:101020000000000001000000FFFFFFFF512563FCEE
:10103000C2CAB9F3849E17A7ADFAE6BCFFFFFFFF53
:10104000FFFFFFFF00000000FFFFFFFF96C298D8E0
:101050004539A1F4A033EB2D817D0377F240A463E1
:10106000E5E6BCF847422CE1F2D1176BF551BF37EA
:101070006840B6CBCE5E316B5733CE2B169E0F7CBD
:101080004AEBE78E9B7F1AFEE242E34F4B60D2278A
:101090003E3CCE3BF6B053CCB0061D65BC86987680
:1010A00055BDEBB3E7933AAAD835C65A70B50020C0
:1010B0001000000000000000BCB300200800000089
:1010C0000000000080B500200400000000000000C7
:1010D00046BA00200200000001000000700000007D
:1010E00084B500200800000000000000C4B3002008
:1010F00008000000000000008CB500200400000083
:10110000000000001CB600200100000000000000EC
:10111000F4B200201000000000000000DEB5002046
:1011200002000000000000002CAB00208000000046
:10113000000000006CB2002014000000000000005D
:1011400090B50020040000000000000010AE002058
:10115000500000000000000094B5002004000000D2
:101160000000000080B20020140000000000000019
:10117000E0B500200400000000000000D8B8002006
:101180004A000000010000000103030303030305FC
:10119000050505070709090B0B0D0F111315171985
:1011A0001D21252B31375F69737F1B1F23292F37A3
:1011B0006B7F010303030303030505050707090903
:1011C000090B0D0F111315171B1F252931375F69E7
:1011D000777F00001DB60020010000000000000025
:1011E000E4B50020020000000000000098B50020D7
:1011F00004000000000000001EB6002003000000F4
:1012000000000000E6B50020020000000000000021
:1012100021B6002001000000000000009CB5002065
:10122000100000000000000060B100201800000065
:101230000000000022B600200100000000000000B5
:1012400034BA0020080000000100000027B20201AB
:1012500027B2020110B000202800000000000000AA
:1012600090AF00203000000000000000D3B3002049
